{
  "contractName": "SplitPayment",
  "abi": [
    {
      "inputs": [
        {
          "internalType": "address payable",
          "name": "_owner",
          "type": "address"
        }
      ],
      "stateMutability": "nonpayable",
      "type": "constructor"
    },
    {
      "inputs": [],
      "name": "owner",
      "outputs": [
        {
          "internalType": "address payable",
          "name": "",
          "type": "address"
        }
      ],
      "stateMutability": "view",
      "type": "function",
      "constant": true
    },
    {
      "inputs": [
        {
          "internalType": "address payable[]",
          "name": "receivers",
          "type": "address[]"
        },
        {
          "internalType": "uint256[]",
          "name": "amount",
          "type": "uint256[]"
        }
      ],
      "name": "send",
      "outputs": [],
      "stateMutability": "payable",
      "type": "function",
      "payable": true
    }
  ],
  "bytecode": "0x608060405234801561001057600080fd5b506040516107d13803806107d1833981810160405281019061003291906100db565b806000806101000a81548173ffffffffffffffffffffffffffffffffffffffff021916908373ffffffffffffffffffffffffffffffffffffffff16021790555050610108565b600080fd5b600073ffffffffffffffffffffffffffffffffffffffff82169050919050565b60006100a88261007d565b9050919050565b6100b88161009d565b81146100c357600080fd5b50565b6000815190506100d5816100af565b92915050565b6000602082840312156100f1576100f0610078565b5b60006100ff848285016100c6565b91505092915050565b6106ba806101176000396000f3fe6080604052600436106100295760003560e01c80638da5cb5b1461002e578063a645ff5f14610059575b600080fd5b34801561003a57600080fd5b50610043610075565b6040516100509190610215565b60405180910390f35b610073600480360381019061006e91906104c2565b610099565b005b60008054906101000a900473ffffffffffffffffffffffffffffffffffffffff1681565b60008054906101000a900473ffffffffffffffffffffffffffffffffffffffff1673ffffffffffffffffffffffffffffffffffffffff163373ffffffffffffffffffffffffffffffffffffffff16146100f157600080fd5b8051825114610135576040517f08c379a000000000000000000000000000000000000000000000000000000000815260040161012c906105bd565b60405180910390fd5b60005b82518110156101cf57828181518110610154576101536105dd565b5b602002602001015173ffffffffffffffffffffffffffffffffffffffff166108fc838381518110610188576101876105dd565b5b60200260200101519081150290604051600060405180830381858888f193505050501580156101bb573d6000803e3d6000fd5b5080806101c79061063b565b915050610138565b505050565b600073ffffffffffffffffffffffffffffffffffffffff82169050919050565b60006101ff826101d4565b9050919050565b61020f816101f4565b82525050565b600060208201905061022a6000830184610206565b92915050565b6000604051905090565b600080fd5b600080fd5b600080fd5b6000601f19601f8301169050919050565b7f4e487b7100000000000000000000000000000000000000000000000000000000600052604160045260246000fd5b61029282610249565b810181811067ffffffffffffffff821117156102b1576102b061025a565b5b80604052505050565b60006102c4610230565b90506102d08282610289565b919050565b600067ffffffffffffffff8211156102f0576102ef61025a565b5b602082029050602081019050919050565b600080fd5b61030f816101f4565b811461031a57600080fd5b50565b60008135905061032c81610306565b92915050565b6000610345610340846102d5565b6102ba565b9050808382526020820190506020840283018581111561036857610367610301565b5b835b81811015610391578061037d888261031d565b84526020840193505060208101905061036a565b5050509392505050565b600082601f8301126103b0576103af610244565b5b81356103c0848260208601610332565b91505092915050565b600067ffffffffffffffff8211156103e4576103e361025a565b5b602082029050602081019050919050565b6000819050919050565b610408816103f5565b811461041357600080fd5b50565b600081359050610425816103ff565b92915050565b600061043e610439846103c9565b6102ba565b9050808382526020820190506020840283018581111561046157610460610301565b5b835b8181101561048a57806104768882610416565b845260208401935050602081019050610463565b5050509392505050565b600082601f8301126104a9576104a8610244565b5b81356104b984826020860161042b565b91505092915050565b600080604083850312156104d9576104d861023a565b5b600083013567ffffffffffffffff8111156104f7576104f661023f565b5b6105038582860161039b565b925050602083013567ffffffffffffffff8111156105245761052361023f565b5b61053085828601610494565b9150509250929050565b600082825260208201905092915050565b7f52656365697665727320616e6420616d6f756e7473206e756d626572206d757360008201527f74206265207468652073616d6500000000000000000000000000000000000000602082015250565b60006105a7602d8361053a565b91506105b28261054b565b604082019050919050565b600060208201905081810360008301526105d68161059a565b9050919050565b7f4e487b7100000000000000000000000000000000000000000000000000000000600052603260045260246000fd5b7f4e487b7100000000000000000000000000000000000000000000000000000000600052601160045260246000fd5b6000610646826103f5565b91507fffffffffffffffffffffffffffffffffffffffffffffffffffffffffffffffff8214156106795761067861060c565b5b60018201905091905056fea26469706673582212203e87ed4529eaf6a1cc68d661010db871d5b0cc07f22033776e42c438979118ad64736f6c634300080a0033",
  "immutableReferences": {},
  "source": "// SPDX-License-Identifier: MIT\r\npragma solidity >=0.4.22 <0.9.0;\r\n\r\ncontract SplitPayment {\r\n    address payable public owner;\r\n\r\n    constructor(address payable _owner) {\r\n        owner = _owner;\r\n    }\r\n\r\n    modifier onlyOwner() {\r\n        require(msg.sender == owner);\r\n        _;\r\n    }\r\n\r\n    function send(address payable[] memory receivers, uint256[] memory amount)\r\n        public\r\n        payable\r\n        onlyOwner\r\n    {\r\n        require(\r\n            receivers.length == amount.length,\r\n            \"Receivers and amounts number must be the same\"\r\n        );\r\n\r\n        for (uint256 i = 0; i < receivers.length; i++) {\r\n            receivers[i].transfer(amount[i]);\r\n        }\r\n    }\r\n}\r\n",
  "sourcePath": "C:\\repo\\SolidityBasics\\PaymentSplitting\\contracts\\SplitPayment.sol",
  "compiler": {
    "name": "solc",
    "version": "0.8.10+commit.fc410830.Emscripten.clang"
  },
  "schemaVersion": "3.4.3",
  "updatedAt": "2021-12-26T00:50:55.465Z",
  "networkType": "ethereum",
  "devdoc": {
    "kind": "dev",
    "methods": {},
    "version": 1
  },
  "userdoc": {
    "kind": "user",
    "methods": {},
    "version": 1
  }
}