{
  "contractName": "Strings",
  "abi": [
    {
      "inputs": [
        {
          "internalType": "string",
          "name": "str",
          "type": "string"
        }
      ],
      "name": "length",
      "outputs": [
        {
          "internalType": "uint256",
          "name": "",
          "type": "uint256"
        }
      ],
      "stateMutability": "pure",
      "type": "function",
      "constant": true
    },
    {
      "inputs": [
        {
          "internalType": "string",
          "name": "a",
          "type": "string"
        },
        {
          "internalType": "string",
          "name": "b",
          "type": "string"
        }
      ],
      "name": "concatenate",
      "outputs": [
        {
          "internalType": "string",
          "name": "",
          "type": "string"
        }
      ],
      "stateMutability": "pure",
      "type": "function",
      "constant": true
    },
    {
      "inputs": [
        {
          "internalType": "string",
          "name": "a",
          "type": "string"
        },
        {
          "internalType": "string",
          "name": "b",
          "type": "string"
        }
      ],
      "name": "compare",
      "outputs": [
        {
          "internalType": "bool",
          "name": "",
          "type": "bool"
        }
      ],
      "stateMutability": "pure",
      "type": "function",
      "constant": true
    },
    {
      "inputs": [
        {
          "internalType": "string",
          "name": "_str",
          "type": "string"
        }
      ],
      "name": "reverse",
      "outputs": [
        {
          "internalType": "string",
          "name": "",
          "type": "string"
        }
      ],
      "stateMutability": "pure",
      "type": "function",
      "constant": true
    }
  ],
  "bytecode": "0x608060405234801561001057600080fd5b50610718806100206000396000f3fe608060405234801561001057600080fd5b506004361061004c5760003560e01c8063064767aa14610051578063266001d3146100815780633a96fdd7146100b1578063436a66e7146100e1575b600080fd5b61006b60048036038101906100669190610365565b610111565b604051610078919061044b565b60405180910390f35b61009b6004803603810190610096919061046d565b610257565b6040516100a8919061044b565b60405180910390f35b6100cb60048036038101906100c6919061046d565b610289565b6040516100d89190610509565b60405180910390f35b6100fb60048036038101906100f69190610365565b6102e8565b604051610108919061053d565b60405180910390f35b6060600083838080601f016020809104026020016040519081016040528093929190818152602001838380828437600081840152601f19601f8201169050808301925050505050505090506000815167ffffffffffffffff81111561017957610178610558565b5b6040519080825280601f01601f1916602001820160405280156101ab5781602001600182028036833780820191505090505b509050600081905060005b835181101561024a578381815181106101d2576101d1610587565b5b602001015160f81c60f81b8260018387516101ed91906105e5565b6101f791906105e5565b8151811061020857610207610587565b5b60200101907effffffffffffffffffffffffffffffffffffffffffffffffffffffffffffff1916908160001a905350808061024290610619565b9150506101b6565b5080935050505092915050565b60608484848460405160200161027094939291906106a1565b6040516020818303038152906040529050949350505050565b6000828260405160200161029e9291906106c9565b6040516020818303038152906040528051906020012085856040516020016102c79291906106c9565b60405160208183030381529060405280519060200120149050949350505050565b600082829050905092915050565b600080fd5b600080fd5b600080fd5b600080fd5b600080fd5b60008083601f84011261032557610324610300565b5b8235905067ffffffffffffffff81111561034257610341610305565b5b60208301915083600182028301111561035e5761035d61030a565b5b9250929050565b6000806020838503121561037c5761037b6102f6565b5b600083013567ffffffffffffffff81111561039a576103996102fb565b5b6103a68582860161030f565b92509250509250929050565b600081519050919050565b600082825260208201905092915050565b60005b838110156103ec5780820151818401526020810190506103d1565b838111156103fb576000848401525b50505050565b6000601f19601f8301169050919050565b600061041d826103b2565b61042781856103bd565b93506104378185602086016103ce565b61044081610401565b840191505092915050565b600060208201905081810360008301526104658184610412565b905092915050565b60008060008060408587031215610487576104866102f6565b5b600085013567ffffffffffffffff8111156104a5576104a46102fb565b5b6104b18782880161030f565b9450945050602085013567ffffffffffffffff8111156104d4576104d36102fb565b5b6104e08782880161030f565b925092505092959194509250565b60008115159050919050565b610503816104ee565b82525050565b600060208201905061051e60008301846104fa565b92915050565b6000819050919050565b61053781610524565b82525050565b6000602082019050610552600083018461052e565b92915050565b7f4e487b7100000000000000000000000000000000000000000000000000000000600052604160045260246000fd5b7f4e487b7100000000000000000000000000000000000000000000000000000000600052603260045260246000fd5b7f4e487b7100000000000000000000000000000000000000000000000000000000600052601160045260246000fd5b60006105f082610524565b91506105fb83610524565b92508282101561060e5761060d6105b6565b5b828203905092915050565b600061062482610524565b91507fffffffffffffffffffffffffffffffffffffffffffffffffffffffffffffffff821415610657576106566105b6565b5b600182019050919050565b600081905092915050565b82818337600083830152505050565b60006106888385610662565b935061069583858461066d565b82840190509392505050565b60006106ae82868861067c565b91506106bb82848661067c565b915081905095945050505050565b60006106d682848661067c565b9150819050939250505056fea2646970667358221220dce3f1eaff80c18aa905f5e35b3f45a477926d8f1d21da2797b50925c3736ebe64736f6c634300080a0033",
  "immutableReferences": {},
  "source": "// SPDX-License-Identifier: MIT\r\npragma solidity >=0.4.22 <0.9.0;\r\n\r\ncontract Strings {\r\n    function length(string calldata str) external pure returns (uint256) {\r\n        return bytes(str).length;\r\n    }\r\n\r\n    function concatenate(string calldata a, string calldata b)\r\n        external\r\n        pure\r\n        returns (string memory)\r\n    {\r\n        return string(abi.encodePacked(a, b));\r\n    }\r\n\r\n    function compare(string calldata a, string calldata b)\r\n        external\r\n        pure\r\n        returns (bool)\r\n    {\r\n        return keccak256(abi.encodePacked(a)) == keccak256(abi.encodePacked(b));\r\n    }\r\n\r\n    function reverse(string calldata _str)\r\n        external\r\n        pure\r\n        returns (string memory)\r\n    {\r\n        bytes memory str = bytes(_str);\r\n        string memory tmp = new string(str.length);\r\n        bytes memory _reverse = bytes(tmp);\r\n\r\n        for (uint256 i = 0; i < str.length; i++) {\r\n            _reverse[str.length - i - 1] = str[i];\r\n        }\r\n        return string(_reverse);\r\n    }\r\n}\r\n",
  "sourcePath": "C:\\repo\\SolidityBasics\\StringOperations\\contracts\\Strings.sol",
  "compiler": {
    "name": "solc",
    "version": "0.8.10+commit.fc410830.Emscripten.clang"
  },
  "schemaVersion": "3.4.3",
  "updatedAt": "2022-01-04T00:21:08.897Z",
  "networkType": "ethereum",
  "devdoc": {
    "kind": "dev",
    "methods": {},
    "version": 1
  },
  "userdoc": {
    "kind": "user",
    "methods": {},
    "version": 1
  }
}