{
  "contractName": "Deposit",
  "abi": [
    {
      "inputs": [
        {
          "internalType": "address",
          "name": "_depositor",
          "type": "address"
        },
        {
          "internalType": "address payable",
          "name": "_beneficiary",
          "type": "address"
        },
        {
          "internalType": "uint256",
          "name": "_amount",
          "type": "uint256"
        }
      ],
      "stateMutability": "payable",
      "type": "constructor",
      "payable": true
    },
    {
      "inputs": [],
      "name": "amount",
      "outputs": [
        {
          "internalType": "uint256",
          "name": "",
          "type": "uint256"
        }
      ],
      "stateMutability": "view",
      "type": "function",
      "constant": true
    },
    {
      "inputs": [],
      "name": "beneficiary",
      "outputs": [
        {
          "internalType": "address payable",
          "name": "",
          "type": "address"
        }
      ],
      "stateMutability": "view",
      "type": "function",
      "constant": true
    },
    {
      "inputs": [],
      "name": "depositor",
      "outputs": [
        {
          "internalType": "address",
          "name": "",
          "type": "address"
        }
      ],
      "stateMutability": "view",
      "type": "function",
      "constant": true
    },
    {
      "inputs": [],
      "name": "lawyer",
      "outputs": [
        {
          "internalType": "address",
          "name": "",
          "type": "address"
        }
      ],
      "stateMutability": "view",
      "type": "function",
      "constant": true
    },
    {
      "inputs": [],
      "name": "deposit",
      "outputs": [],
      "stateMutability": "payable",
      "type": "function",
      "payable": true
    },
    {
      "inputs": [],
      "name": "withdraw",
      "outputs": [],
      "stateMutability": "nonpayable",
      "type": "function"
    }
  ],
  "bytecode": "0x60806040526040516109b93803806109b9833981810160405281019061002591906101e8565b826000806101000a81548173ffffffffffffffffffffffffffffffffffffffff021916908373ffffffffffffffffffffffffffffffffffffffff16021790555081600160006101000a81548173ffffffffffffffffffffffffffffffffffffffff021916908373ffffffffffffffffffffffffffffffffffffffff16021790555033600260006101000a81548173ffffffffffffffffffffffffffffffffffffffff021916908373ffffffffffffffffffffffffffffffffffffffff160217905550806003819055506000600460006101000a81548160ff02191690831515021790555050505061023b565b600080fd5b600073ffffffffffffffffffffffffffffffffffffffff82169050919050565b600061014182610116565b9050919050565b61015181610136565b811461015c57600080fd5b50565b60008151905061016e81610148565b92915050565b600061017f82610116565b9050919050565b61018f81610174565b811461019a57600080fd5b50565b6000815190506101ac81610186565b92915050565b6000819050919050565b6101c5816101b2565b81146101d057600080fd5b50565b6000815190506101e2816101bc565b92915050565b60008060006060848603121561020157610200610111565b5b600061020f8682870161015f565b93505060206102208682870161019d565b9250506040610231868287016101d3565b9150509250925092565b61076f8061024a6000396000f3fe6080604052600436106100555760003560e01c806338af3eed1461005a5780633bfb6e31146100855780633ccfd60b146100b0578063aa8c217c146100c7578063c7c4ff46146100f2578063d0e30db01461011d575b600080fd5b34801561006657600080fd5b5061006f610127565b60405161007c919061045b565b60405180910390f35b34801561009157600080fd5b5061009a61014d565b6040516100a79190610497565b60405180910390f35b3480156100bc57600080fd5b506100c5610173565b005b3480156100d357600080fd5b506100dc6102c6565b6040516100e991906104cb565b60405180910390f35b3480156100fe57600080fd5b506101076102cc565b6040516101149190610497565b60405180910390f35b6101256102f0565b005b600160009054906101000a900473ffffffffffffffffffffffffffffffffffffffff1681565b600260009054906101000a900473ffffffffffffffffffffffffffffffffffffffff1681565b60011515600460009054906101000a900460ff161515146101c9576040517f08c379a00000000000000000000000000000000000000000000000000000000081526004016101c090610569565b60405180910390fd5b600260009054906101000a900473ffffffffffffffffffffffffffffffffffffffff1673ffffffffffffffffffffffffffffffffffffffff163373ffffffffffffffffffffffffffffffffffffffff1614610259576040517f08c379a0000000000000000000000000000000000000000000000000000000008152600401610250906105d5565b60405180910390fd5b600160009054906101000a900473ffffffffffffffffffffffffffffffffffffffff1673ffffffffffffffffffffffffffffffffffffffff166108fc6003549081150290604051600060405180830381858888f193505050501580156102c3573d6000803e3d6000fd5b50565b60035481565b60008054906101000a900473ffffffffffffffffffffffffffffffffffffffff1681565b60008054906101000a900473ffffffffffffffffffffffffffffffffffffffff1673ffffffffffffffffffffffffffffffffffffffff163373ffffffffffffffffffffffffffffffffffffffff161461037e576040517f08c379a000000000000000000000000000000000000000000000000000000000815260040161037590610641565b60405180910390fd5b60035434146103c2576040517f08c379a00000000000000000000000000000000000000000000000000000000081526004016103b9906106ad565b60405180910390fd5b60001515600460009054906101000a900460ff16151514610418576040517f08c379a000000000000000000000000000000000000000000000000000000000815260040161040f90610719565b60405180910390fd5b565b600073ffffffffffffffffffffffffffffffffffffffff82169050919050565b60006104458261041a565b9050919050565b6104558161043a565b82525050565b6000602082019050610470600083018461044c565b92915050565b60006104818261041a565b9050919050565b61049181610476565b82525050565b60006020820190506104ac6000830184610488565b92915050565b6000819050919050565b6104c5816104b2565b82525050565b60006020820190506104e060008301846104bc565b92915050565b600082825260208201905092915050565b7f63616e6e6f742077697468647261772066756e6473206265666f72652069742060008201527f6973206465706f73697465640000000000000000000000000000000000000000602082015250565b6000610553602c836104e6565b915061055e826104f7565b604082019050919050565b6000602082019050818103600083015261058281610546565b9050919050565b7f6f6e6c79206c61777965722063616e2077697468647261772066756e64730000600082015250565b60006105bf601e836104e6565b91506105ca82610589565b602082019050919050565b600060208201905081810360008301526105ee816105b2565b9050919050565b7f53656e646572206d75737420626520746865206465706f7369746f7200000000600082015250565b600061062b601c836104e6565b9150610636826105f5565b602082019050919050565b6000602082019050818103600083015261065a8161061e565b9050919050565b7f4d7573742073656e6420616d6f756e7400000000000000000000000000000000600082015250565b60006106976010836104e6565b91506106a282610661565b602082019050919050565b600060208201905081810360008301526106c68161068a565b9050919050565b7f486173206265656e20616c72656164792073656e740000000000000000000000600082015250565b60006107036015836104e6565b915061070e826106cd565b602082019050919050565b60006020820190508181036000830152610732816106f6565b905091905056fea26469706673582212200a11ae2ab075ca54c7f864b7b2ec4fb4931c3e30487d57a047dd8dde81d2ccf064736f6c634300080a0033",
  "immutableReferences": {},
  "source": "// SPDX-License-Identifier: MIT\r\npragma solidity >=0.4.22 <0.9.0;\r\n\r\ncontract Deposit {\r\n    address public depositor;\r\n    address payable public beneficiary;\r\n    address public lawyer;\r\n\r\n    uint256 public amount;\r\n\r\n    bool is_deposited;\r\n\r\n    constructor(\r\n        address _depositor,\r\n        address payable _beneficiary,\r\n        uint256 _amount\r\n    ) payable {\r\n        depositor = _depositor;\r\n        beneficiary = _beneficiary;\r\n        lawyer = msg.sender;\r\n        amount = _amount;\r\n        is_deposited = false;\r\n    }\r\n\r\n    function deposit() public payable {\r\n        require(msg.sender == depositor, \"Sender must be the depositor\");\r\n        require(msg.value == amount, \"Must send amount\");\r\n        require(is_deposited == false, \"Has been already sent\");\r\n    }\r\n\r\n    function withdraw() public {\r\n        require(\r\n            is_deposited == true,\r\n            \"cannot withdraw funds before it is deposited\"\r\n        );\r\n        require(msg.sender == lawyer, \"only lawyer can withdraw funds\");\r\n        beneficiary.transfer(amount);\r\n    }\r\n}\r\n",
  "sourcePath": "C:\\repo\\SolidityBasics\\Deposit\\contracts\\Deposit.sol",
  "compiler": {
    "name": "solc",
    "version": "0.8.10+commit.fc410830.Emscripten.clang"
  },
  "schemaVersion": "3.4.3",
  "updatedAt": "2021-12-30T00:30:54.276Z",
  "networkType": "ethereum",
  "devdoc": {
    "kind": "dev",
    "methods": {},
    "version": 1
  },
  "userdoc": {
    "kind": "user",
    "methods": {},
    "version": 1
  }
}